:100000000C945D000C9485000C9485000C94E8051C
:100010000C94E8050C94E8050C9485000C9485007C
:100020000C9485000C9485000C9485000C9485003C
:100030000C9485000C9485000C9485000C9485002C
:100040000C949E050C9485000C946C050C9446054C
:100050000C9485000C9485000C9485000C9485000C
:100060000C94F2050C948500000000002400270089
:100070002A0000000000250028002B0004040404CE
:100080000404040402020202020203030303030342
:10009000010204081020408001020408102001021F
:1000A00004081020000000080002010000030407FB
:1000B0000000000000000000110711241FBECFEF58
:1000C000D8E0DEBFCDBF11E0A0E0B1E0E8E6F4E1AA
:1000D00002C005900D92A634B107D9F722E0A6E43C
:1000E000B1E001C01D92A43CB207E1F710E0CDE5FC
:1000F000D0E004C02197FE010E942C0ACC35D10724
:10010000C9F70E9459070C94320A0C940000089514
:100110000895AF92BF92CF92DF92EF92FF920F932A
:100120001F93CF93DF936C017B018B01040F151F8D
:10013000EB015E01AE18BF08C017D10759F06991F5
:10014000D601ED91FC910190F081E02DC601099559
:10015000892B79F7C501DF91CF911F910F91FF9006
:10016000EF90DF90CF90BF90AF900895FC01538D3A
:10017000448D252F30E0842F90E0821B930B541781
:1001800010F0CF96089501970895FC01918D828D0E
:10019000981761F0A28DAE0FBF2FB11D5D968C91A7
:1001A000928D9F5F9F73928F90E008958FEF9FEFE6
:1001B0000895FC01918D828D981731F0828DE80FA2
:1001C000F11D858D90E008958FEF9FEF0895FC015C
:1001D000918D228D892F90E0805C9F4F821B910929
:1001E0008F73992708958FE092E00E94E70021E045
:1001F000892B09F420E0822F089580E090E0892B7C
:1002000029F00E94F30081110C9400000895FC0174
:10021000A48DA80FB92FB11DA35ABF4F2C91848D67
:1002200090E001968F739927848FA689B7892C93C4
:10023000A089B1898C91837080648C93938D848D17
:10024000981306C00288F389E02D80818F7D80831A
:100250000895EF92FF920F931F93CF93DF93EC01DA
:1002600081E0888F9B8D8C8D98131AC0E889F9895D
:10027000808185FF15C09FB7F894EE89FF89608360
:10028000E889F98980818370806480839FBF81E0E1
:1002900090E0DF91CF911F910F91FF90EF90089523
:1002A000F62E0B8D10E00F5F1F4F0F731127E02EFE
:1002B0008C8D8E110CC00FB607FCFACFE889F98936
:1002C000808185FFF5CFCE010E940701F1CFEB8D34
:1002D000EC0FFD2FF11DE35AFF4FF0829FB7F8940A
:1002E0000B8FEA89FB8980818062CFCFCF93DF9328
:1002F000EC01888D8823B9F0AA89BB89E889F9893E
:100300008C9185FD03C0808186FD0DC00FB607FC72
:10031000F7CF8C9185FFF2CF808185FFEDCFCE01A5
:100320000E940701E9CFDF91CF91089590E0FC0191
:10033000EC55FF4F2491FC01E057FF4F3491FC0135
:10034000E458FF4FE491EE23C9F0222339F0233023
:1003500001F1A8F4213019F1223029F1F0E0EE0F7B
:10036000FF1FEE58FF4FA591B4918FB7F894EC9111
:10037000611126C030953E233C938FBF08952730EE
:10038000A9F02830C9F0243049F7809180008F7D92
:1003900003C0809180008F7780938000DFCF84B589
:1003A0008F7784BDDBCF84B58F7DFBCF8091B0008C
:1003B0008F778093B000D2CF8091B0008F7DF9CF3E
:1003C0003E2BDACFCF93DF9390E0FC01E057FF4F55
:1003D000249184589F4FFC0184918823D1F090E0B0
:1003E000880F991FFC01E859FF4FA591B491FC01BA
:1003F000EE58FF4FC591D49161110EC09FB7F8948C
:100400008C91E22FE0958E238C932881E223E88360
:100410009FBFDF91CF9108958FB7F894EC91E22BB5
:10042000EC938FBFF6CF3FB7F8948091FF01909186
:100430000002A0910102B091020226B5A89B05C05E
:100440002F3F19F00196A11DB11D3FBFBA2FA92F53
:10045000982F8827BC01CD01620F711D811D911D50
:1004600042E0660F771F881F991F4A95D1F70895BC
:100470008F929F92AF92BF92CF92DF92EF92FF92B4
:100480004B015C010E9413026B017C010E9413026C
:100490006C197D098E099F09683E7340810591059D
:1004A000A8F321E0821A9108A108B10888EEC80ECD
:1004B00083E0D81EE11CF11C81149104A104B10455
:1004C00029F7FF90EF90DF90CF90BF90AF909F9073
:1004D0008F900895089520918701260F3327331FA9
:1004E00021323105ECF42091D001FC0190E080E054
:1004F000243069F082E00895A09187012191AC0138
:1005000049595E4FA40FB52FB11D2C930196861744
:1005100098F380918701680F6093870180E00895C8
:1005200081E008951092D00181E08093CF01109274
:10053000AA0161E082E10E94960161E083E10E94EC
:100540009601E9EBF0E080818E7F808380818D7F52
:10055000808388E48093B80085E48093BC0008958C
:10056000CF93DF9391E0909366018823B9F0C09117
:10057000B800D091BA008091BC008A7B8093BC0007
:1005800060E082E10E94960160E083E10E949601B2
:100590000E949202D093BA00C093B800DF91CF912D
:1005A00008950895E0910E0280910D02E81730F44D
:1005B000F0E0EA5BFE4F808190E008958FEF9FEFBF
:1005C000089590910E0280910D022FEF3FEF981742
:1005D00048F4E92FF0E0EA5BFE4F208130E09F5FB6
:1005E00090930E02C901089580910D0290910E0220
:1005F000891B990B0895CF92DF92EF92FF920F9390
:100600001F93CF93DF937C01CB018A012091D60108
:10061000222389F0EB016B01C40ED51ECC15DD053C
:1006200069F06991D701ED91FC910190F081E02D85
:10063000C7010995F3CF642F0E946B02C801DF91B7
:10064000CF911F910F91FF90EF90DF90CF90089581
:10065000CF93DF931F92CDB7DEB769832091D60188
:100660002223F9F020910B02203258F021E030E0F3
:10067000FC013383228390E080E00F90DF91CF91E3
:10068000089580910C02E82FF0E0E952FE4F998125
:1006900090838F5F80930C0280930B0281E090E047
:1006A000ECCF61E0CE0101960E946B02F7CFCF92B2
:1006B000DF92EF92FF920F931F93CF93DF93FC0192
:1006C000C48121E02093D601C093F70110920C025F
:1006D00010920B028385682B8CEA92E00E9428031B
:1006E000D0910B02D13208F092C00E9413026B012C
:1006F0007C018091D001811165C082E08093D0019E
:1007000081E08093CF018FEF8093CE011092CD01D5
:10071000D093CC01A7EDB1E0ECEAF1E080E0D81392
:1007200085C01092AB018091AB01CC0FC82BC09358
:10073000AB018091AA01813009F07CC01092AA011E
:100740000E9413026B017C018091AB018093BB007E
:100750008091D2019091D301A091D401B091D501A3
:10076000892B8A2B8B2B99F00E9413020091D201C6
:100770001091D3012091D4013091D5016C197D09DC
:100780008E099F090617170728073907E0F180919E
:10079000BC0083FDD9CF85EC8093BC000E9413027E
:1007A0006B017C018091D001823009F445C08091B9
:1007B000CE018F3F61F18091CE01803241F1809175
:1007C000CE0125C08091D2019091D301A091D40196
:1007D000B091D501892B8A2B8B2B09F48ACF0E94EB
:1007E00013020091D2011091D3012091D4013091D4
:1007F000D5016C197D098E099F090617170728076F
:10080000390708F076CF8091D1010E94B002109292
:100810000C0210920B021092D601DF91CF911F9122
:100820000F91FF90EF90DF90CF9008959D9191935D
:100830008F5F75CF85EEB0CF8091D2019091D301BB
:10084000A091D401B091D501892B8A2B8B2B09F46F
:10085000A9CF0E9413020091D2011091D3012091DF
:10086000D4013091D5016C197D098E099F090617B5
:1008700017072807390708F095CFC5CF90E080E02B
:100880000895FC0101900020E9F73197AF01481B62
:10089000590BBC0188EB92E00C9489000F931F93D5
:1008A000CF938C01C62F0E9457036C2F6460C80140
:1008B0000E9457036C2F6B7FC8010E94570383EC83
:1008C00090E00197F1F7CF911F910F9108950F9349
:1008D0001F93CF93DF938C01D62FC42F607F642B9F
:1008E0000E944E0480E1D89FB00111246C2BC801F6
:1008F000DF91CF911F910F910C944E0440E063E87B
:1009000088EB92E00C946704CF93DF9310920E0271
:1009100010920D0210920C0210920B020E94920291
:1009200087E890E090930A028093090288E890E0BB
:1009300090930802809307021092BD028091C20238
:10094000823018F098E09093BD028093C00262E379
:1009500070E080E090E00E9438026091C30288EB72
:1009600092E00E94570368EE73E080E090E00E94FE
:10097000380260E388EB92E00E944E04CBE4D6E4B8
:10098000CE010197F1F760E388EB92E00E944E04FC
:100990002197F1F760E388EB92E00E944E0483E533
:1009A00092E00197F1F760E288EB92E00E944E043A
:1009B0006091BD02606240E088EB92E00E946704B3
:1009C00084E08093BE0240E06CE088EB92E00E94FD
:1009D000670440E061E088EB92E00E946704CBE3AB
:1009E000DFE1CE010197F1F782E08093BF0240E0A2
:1009F00066E088EB92E00E94670440E062E088EBEA
:100A000092E00E9467042197F1F7DF91CF9108955A
:100A100041E00E94670481E090E0089585ED8093B5
:100A2000BC008091D2019091D301A091D401B091EA
:100A3000D5010796A11DB11D23E0B695A795979501
:100A400087952A95D1F72091BC0024FD03C0109210
:100A5000D00108954091D2015091D3016091D40109
:100A60007091D501452B462B472B69F30097A105C3
:100A7000B10541F025E32A95F1F700000197A1099E
:100A8000B109E1CF8091D1010C94B0021F920F9275
:100A90000FB60F9211242F933F934F935F936F9351
:100AA0007F938F939F93AF93BF93EF93FF938FE0C9
:100AB00092E00E940701FF91EF91BF91AF919F914A
:100AC0008F917F916F915F914F913F912F910F90F7
:100AD0000FBE0F901F9018951F920F920FB60F9296
:100AE00011242F938F939F93EF93FF93E0911F0215
:100AF000F09120028081E0912502F091260282FD92
:100B00001BC09081809128028F5F8F7320912902F2
:100B1000821741F0E0912802F0E0E15FFD4F958FF0
:100B200080932802FF91EF919F918F912F910F90C9
:100B30000FBE0F901F9018958081F4CF1F920F92D7
:100B40000FB60F9211242F933F938F939F93AF93E0
:100B5000BF938091FB019091FC01A091FD01B091A8
:100B6000FE013091FA0123E0230F2D3758F501964D
:100B7000A11DB11D2093FA018093FB019093FC010C
:100B8000A093FD01B093FE018091FF0190910002BE
:100B9000A0910102B09102020196A11DB11D8093A6
:100BA000FF0190930002A0930102B0930202BF9153
:100BB000AF919F918F913F912F910F900FBE0F900A
:100BC0001F90189526E8230F0296A11DB11DD2CFC4
:100BD0001F920F920FB60F9211240F900FBE0F901D
:100BE0001F9018951F920F920FB60F9211242F93FA
:100BF0003F934F935F936F937F938F939F93AF93A5
:100C0000BF93EF93FF938091B900887F803609F4FA
:100C10004AC0F0F5883209F4A7C018F5803109F40C
:100C20009BC0B8F4882309F4F9C0883009F494C053
:100C3000FF91EF91BF91AF919F918F917F916F91B4
:100C40005F914F913F912F910F900FBE0F901F908A
:100C50001895883109F488C0803251F78093CE010D
:100C600014C0803409F49DC040F48033B9F3883354
:100C7000F9F68093CE0185ECB0C0803509F485C0CB
:100C8000883509F496C0883499F60E940E05D0CFB5
:100C9000883909F48CC038F5883729F050F4883643
:100CA00011F0803729F683E08093D0011092A901DA
:100CB00057C0883809F47BC0803919F0803809F0B2
:100CC000B7CF8091A901803208F071C0E091A901ED
:100CD00081E08E0F8093A9018091BB00F0E0E7577F
:100CE000FE4F80833DC0803B39F0E0F4803A09F448
:100CF00079C0883A09F09CCF84E08093D0011092AB
:100D0000880110928701E0910902F0910A02099589
:100D10008091870181110FC081E08093870110923B
:100D2000670109C0803C09F4A6CF883C09F4A3CF31
:100D3000883B09F07DCFE091880181E08E0F8093A0
:100D40008801F0E0E959FE4F80818093BB009091CB
:100D500088018091870129C08091AB018093BB00FD
:100D600085EC8093BC0064CF9091CD018091CC0143
:100D7000981758F5E091CD0181E08E0F8093CD0159
:100D8000F0E0E455FE4F8081E9CFE091CD0181E0B4
:100D90008E0F8093CD018091BB00F0E0E455FE4FB3
:100DA00080839091CD018091CC019817C8F285E89D
:100DB000D8CFE091CD0181E08E0F8093CD0180915D
:100DC000BB00F0E0E455FE4F80838091CF0181119C
:100DD0005CCF81E08093AA0184EA8093BC001092EA
:100DE000D00126CF85EC8093BC001092D001809179
:100DF000A901803230F4E091A901F0E0E757FE4FFD
:100E000010826091A90170E0E0910702F091080260
:100E100089E891E009951092A9010ACF1092CE01BC
:100E200034CFEFE0F2E01382128288EE93E0A0E08C
:100E3000B0E084839583A683B78324E031E03183D7
:100E4000208325EC30E03587248724EC30E0378799
:100E5000268720EC30E0318B208B21EC30E0338B87
:100E6000228B22EC30E0358B248B26EC30E0378B64
:100E7000268B118E128E138E148EECEAF2E0138202
:100E8000128284839583A683B78386E191E0918360
:100E90008083E8EBF2E01382128288E291E0918392
:100EA000808387E2848384E1818784E0828713865C
:100EB0000895789484B5826084BD84B5816084BDD2
:100EC00085B5826085BD85B5816085BD80916E00E8
:100ED000816080936E001092810080918100826019
:100EE0008093810080918100816080938100809156
:100EF00080008160809380008091B1008460809345
:100F0000B1008091B00081608093B00080917A0040
:100F1000846080937A0080917A00826080937A0066
:100F200080917A00816080937A0080917A00806855
:100F300080937A001092C100E0911F02F09120028C
:100F400082E08083E0911B02F0911C021082E0910C
:100F50001D02F0911E028FEC808310922702E09117
:100F60002302F091240286E08083E0912102F09137
:100F70002202808180618083E0912102F09122022F
:100F8000808188608083E0912102F091220280813B
:100F900080688083E0912102F091220280818F7D20
:100FA000808360E08EE00E94E20161E081E00E94C7
:100FB000E20161E087E00E94E2010E9484040E9455
:100FC000840488E08093C30260E088EB92E00E9492
:100FD00057030E947E0480E391E00E94410410E4E4
:100FE000C12C84E0D82EE12CF12C90EAA92EB12C52
:100FF00020E0822E20E0922E10937C0080917A00D7
:10100000806480937A0080917A0086FDFCCF809185
:10101000780020917900322F282F032E000C440BEA
:10102000550B345041095109A4E6B0E00E949708DD
:10103000A70196010E94780850954095309521951A
:101040003F4F4F4F5F4FCA01B9010E9478092B01F2
:101050003C016091050270910602C0EAD0E0072EC3
:10106000000C880B990B0E947809A30192010E9441
:10107000D4080E944009219791F7CB01B5010E9445
:10108000040AEB01709304026093030210920602BB
:101090001092050260EB74E080E090E00E9438025C
:1010A0002A9754F461E087E00E9496010E947E0432
:1010B00080E391E00E944104809103029091040238
:1010C000459754F060E087E00E9496010E947E04FC
:1010D0008AE391E00E9441048114910409F48CCFC9
:1010E0000E94F300882309F487CF0E94000084CF78
:1010F000052E97FB1EF400940E948F0857FD07D021
:101100000E94A20807FC03D04EF40C948F0850955F
:101110004095309521953F4F4F4F5F4F08959095E3
:101120008095709561957F4F8F4F9F4F08950E94D6
:10113000C408A59F900DB49F900DA49F800D911D94
:1011400011240895A1E21A2EAA1BBB1BFD010DC09C
:10115000AA1FBB1FEE1FFF1FA217B307E407F50767
:1011600020F0A21BB30BE40BF50B661F771F881F43
:10117000991F1A9469F760957095809590959B01D9
:10118000AC01BD01CF010895A29FB001B39FC00182
:10119000A39F700D811D1124911DB29F700D811DA3
:1011A0001124911D08955058BB27AA270E94EB08CF
:1011B0000C94CA090E94BC0938F00E94C30920F0AF
:1011C00039F49F3F19F426F40C94B9090EF4E09514
:1011D000E7FB0C94B309E92F0E94DB0958F3BA1717
:1011E000620773078407950720F079F4A6F50C943D
:1011F000FD090EF4E0950B2EBA2FA02D0B01B901BD
:1012000090010C01CA01A0011124FF27591B99F07C
:10121000593F50F4503E68F11A16F040A22F232F88
:10122000342F4427585FF3CF469537952795A795D8
:10123000F0405395C9F77EF41F16BA0B620B730B7F
:10124000840BBAF09150A1F0FF0FBB1F661F771FF0
:10125000881FC2F70EC0BA0F621F731F841F48F4A5
:10126000879577956795B795F7959E3F08F0B0CF2E
:101270009395880F08F09927EE0F97958795089515
:101280000E9447096894B1110C94FE0908950E94C8
:10129000E30988F09F5798F0B92F9927B751B0F01C
:1012A000E1F0660F771F881F991F1AF0BA95C9F7EA
:1012B00014C0B13091F00E94FD09B1E008950C9482
:1012C000FD09672F782F8827B85F39F0B93FCCF335
:1012D000869577956795B395D9F73EF49095809567
:1012E000709561957F4F8F4F9F4F0895E89409C087
:1012F00097FB3EF490958095709561957F4F8F4F49
:101300009F4F9923A9F0F92F96E9BB279395F6955E
:10131000879577956795B795F111F8CFFAF4BB0FDC
:1013200011F460FF1BC06F5F7F4F8F4F9F4F16C040
:10133000882311F096E911C0772321F09EE8872FCA
:10134000762F05C0662371F096E8862F70E060E086
:101350002AF09A95660F771F881FDAF7880F9695FF
:10136000879597F9089597F99F6780E870E060E0A6
:1013700008959FEF80EC089500240A94161617062E
:1013800018060906089500240A9412161306140676
:1013900005060895092E0394000C11F4882352F0D9
:1013A000BB0F40F4BF2B11F460FF04C06F5F7F4F91
:1013B0008F4F9F4F089557FD9058440F551F59F078
:1013C0005F3F71F04795880F97FB991F61F09F3F32
:1013D00079F087950895121613061406551FF2CF5B
:1013E0004695F1DF08C0161617061806991FF1CFAB
:1013F00086957105610508940895E894BB276627D2
:101400007727CB0197F9089597FB072E16F40094E0
:1014100007D077FD09D00E94180A07FC05D03EF4DA
:10142000909581959F4F0895709561957F4F089590
:10143000AA1BBB1B51E107C0AA1FBB1FA617B707FA
:1014400010F0A61BB70B881F991F5A95A9F7809516
:101450009095BC01CD010895EE0FFF1F0590F4910A
:08146000E02D0994F894FFCF80
:101468000000000029018900B6007601E700C500E8
:10147800D900000000002803FB023E04D102F40258
:10148800E102D20200000000080589003E046A0259
:101498004D6F746F72204F6E21004D6F746F722004
:0614A8006F6666210000E2
:00000001FF
