:100000000C945E000C9486000C9486000C94860080
:100010000C9486000C9486000C9486000C94860048
:100020000C9486000C9486000C9486000C94860038
:100030000C9486000C9486000C9486000C94860028
:100040000C9478020C9486000C94E8020C94C20282
:100050000C9486000C9486000C9486000C94860008
:100060000C9486000C948600000000080002010039
:100070000003040700000000000000000000000072
:10008000250028002B0000000000240027002A0083
:10009000040404040404040402020202020203032E
:1000A0000303030301020408102040800102040836
:1000B00010200102040810201A03D90411241FBEC5
:1000C000CFEFD8E0DEBFCDBF22E0AEE5B1E001C0AA
:1000D0001D92AE30B207E1F711E0A0E0B1E0ECE52F
:1000E000FEE002C005900D92AE35B107D9F710E0E1
:1000F000CDE5D0E004C02197FE010E941605CC3565
:10010000D107C9F70E948E030C9421070C940000BC
:1001100090E0FC01EC55FF4F2491FC01E057FF4FAC
:100120008491882399F090E0880F991FFC01EA5789
:10013000FF4FA591B491FC01E458FF4F8591949134
:100140008FB7F894EC91E22BEC938FBF089590E079
:10015000FC01E859FF4F2491FC01EC55FF4F34910D
:10016000FC01E057FF4FE491EE2309F43CC0222349
:1001700039F1233091F038F42130A9F0223001F523
:1001800084B58F7D12C0273091F02830A1F0243043
:10019000B9F4809180008F7D03C0809180008F77BB
:1001A000809380000DC084B58F7784BD09C0809195
:1001B000B0008F7703C08091B0008F7D8093B00036
:1001C000F0E0EE0FFF1FE458FF4FA591B4919FB7E9
:1001D000F894611104C08C913095382302C0EC91E1
:1001E0003E2B3C939FBF08953FB7F89480916301E5
:1001F00090916401A0916501B091660126B5A89B1C
:1002000005C02F3F19F00196A11DB11D3FBFBA2FA8
:10021000A92F982F8827820F911DA11DB11DBC0108
:10022000CD0142E0660F771F881F991F4A95D1F7CD
:100230000895CF92DF92EF92FF920F931F93CF9387
:10024000DF936C017A018B01C0E0D0E0CE15DF05B1
:1002500081F0D8016D918D01D601ED91FC91019055
:10026000F081E02DC6010995892B11F02196EECF82
:100270007E01C701DF91CF911F910F91FF90EF9009
:10028000DF90CF900895089580E090E00895FC01FC
:10029000538D448D252F30E0842F90E0821B930BEB
:1002A000541710F0CF96089501970895FC01918D91
:1002B000828D981761F0828DDF01A80FB11D5D96C8
:1002C0008C91928D9F5F9F73928F90E008958FEF36
:1002D0009FEF0895FC01918D828D981731F0828DEA
:1002E000E80FF11D858D90E008958FEF9FEF089541
:1002F000FC01918D228D892F90E0805C9F4F821BA5
:1003000091098F739927089587E691E00E947801FB
:1003100021E0892B09F420E0822F0895FC01848DCF
:10032000DF01A80FB11DA35ABF4F2C91848D90E01F
:1003300001968F739927848FA689B7892C93A089FA
:10034000B1898C91837080648C93938D848D981384
:1003500006C00288F389E02D80818F7D8083089517
:10036000EF92FF920F931F93CF93DF93EC0181E005
:10037000888F9B8D8C8D981305C0E889F9898081C1
:1003800085FD26C0F62E0B8D10E00F5F1F4F0F73FB
:100390001127E02E8C8DE8120CC00FB607FCFACFA7
:1003A000E889F989808185FFF5CFCE010E948E0111
:1003B000F1CF8B8DFE01E80FF11DE35AFF4FF08264
:1003C0009FB7F8940B8FEA89FB89808180620AC00D
:1003D0009FB7F894EE89FF896083E889F989808165
:1003E0008370806480839FBF81E090E0DF91CF9134
:1003F0001F910F91FF90EF900895CF93DF93EC0141
:10040000888D8823C9F0EA89FB89808185FD05C034
:10041000A889B9898C9186FD0FC00FB607FCF5CF6E
:10042000808185FFF2CFA889B9898C9185FFEDCFB6
:10043000CE010E948E01E7CFDF91CF91089580E039
:1004400090E0892B29F00E94840181110C94000016
:100450000895FC018091080290910902892B21F4F2
:1004600021E0309749F413C0809104029091050275
:10047000309731F421E0FC018081882341F006C0EF
:10048000BF010E94110721E0892B09F020E0822F93
:100490000895CF93DF93EC018091040290910502BF
:1004A000009739F020910602309107022C173D0782
:1004B000B8F4BE016F5F7F4F0E943D06009791F038
:1004C0009093050280930402D0930702C093060222
:1004D0002091080230910902232B11F4FC011082B3
:1004E00081E001C080E0DF91CF9108950E94030771
:1004F0001F920F920FB60F9211242F933F938F9359
:100500009F93AF93BF9380915F0190916001A09101
:100510006101B091620130915E0123E0230F2D371C
:1005200020F40196A11DB11D05C026E8230F0296F7
:10053000A11DB11D20935E0180935F019093600126
:10054000A0936101B0936201809163019091640175
:10055000A0916501B09166010196A11DB11D809326
:10056000630190936401A0936501B0936601BF910C
:10057000AF919F918F913F912F910F900FBE0F9050
:100580001F9018951F920F920FB60F9211242F9360
:100590003F934F935F936F937F938F939F93AF930B
:1005A000BF93EF93FF9387E691E00E948E01FF9146
:1005B000EF91BF91AF919F918F917F916F915F91DB
:1005C0004F913F912F910F900FBE0F901F90189554
:1005D0001F920F920FB60F9211242F938F939F9318
:1005E000EF93FF93E0917701F09178018081E091A2
:1005F0007D01F0917E0182FD12C090818091800189
:100600008F5F8F7320918101821751F0E0918001FB
:10061000F0E0E959FE4F958F8093800101C0808101
:10062000FF91EF919F918F912F910F900FBE0F909F
:100630001F90189510926A011092690188EE93E05C
:10064000A0E0B0E080936B0190936C01A0936D01EA
:10065000B0936E018AE091E0909368018093670106
:1006600085EC90E0909374018093730184EC90E0AA
:10067000909376018093750180EC90E090937801DF
:100680008093770181EC90E090937A0180937901D7
:1006900082EC90E090937C0180937B0186EC90E06B
:1006A00090937E0180937D011092800110928101D0
:1006B000109282011092830110920502109204029E
:1006C000109207021092060210920902109208027C
:1006D00080E090E00E9449022091040230910502DE
:1006E000811113C02115310519F0C9010E94B4050B
:1006F0001092050210920402109209021092080250
:1007000010920702109206020895109209021092A8
:1007100008026AE171E0C9010C941A07CF93DF93D4
:1007200000D0CDB7DEB7789484B5826084BD84B53F
:10073000816084BD85B5826085BD85B5816085BDDC
:1007400080916E00816080936E0010928100809194
:10075000810082608093810080918100816080931C
:100760008100809180008160809380008091B10041
:1007700084608093B1008091B00081608093B0006C
:1007800080917A00846080937A0080917A00826000
:1007900080937A0080917A00816080937A008091C2
:1007A0007A00806880937A001092C100E09177010E
:1007B000F091780182E08083E0917301F0917401FF
:1007C0001082E0917501F09176018FEC8083109298
:1007D0007F01E0917B01F0917C0186E08083E091D4
:1007E0007901F0917A01808180618083E0917901C3
:1007F000F0917A01808188608083E0917901F091A5
:100800007A01808180688083E0917901F0917A019A
:1008100080818F7D808386E00E94880085E00E9431
:10082000880087E691E00E947801892B09F44BC08B
:100830000E94F4004B015C0183E0C82ED12CE12C16
:10084000F12C0E94F400DC01CB0188199909AA0956
:10085000BB09883E9340A105B10598F321E0C21A77
:10086000D108E108F10888EE880E83E0981EA11CEB
:10087000B11CC114D104E104F10419F787E691E039
:100880000E94560189831A82009108021091090280
:100890000F5F1F4FC8010E944902882311F2209167
:1008A0000402309105028091080290910902BE0174
:1008B0006F5F7F4F820F931F0E941A0710930902E8
:1008C00000930802AECF40910802509109024115F1
:1008D000510509F46BC0609104027091050287E62E
:1008E00091E00E94190142E050E068E171E087E682
:1008F00091E00E9419018BE191E00E94290281118F
:1009000023C089E291E00E942902882311F060E06F
:100910001CC088E391E00E942902882311F061E065
:1009200007C084E491E00E942902882319F060E066
:1009300085E00CC081E591E00E942902882341F006
:1009400061E085E00E94A70061E086E00E94A700C8
:1009500060E085E00E94A70060E086E00E94A700BA
:1009600080E090E00E94490220910402309105024B
:10097000811113C02115310519F0C9010E94B40578
:1009800010920502109204021092090210920802BD
:10099000109207021092060209C0109209021092EA
:1009A00008026AE171E0C9010E941A070E941F0251
:1009B00038CF80910402909105020C94B4052F92D7
:1009C0003F924F925F926F927F928F929F92AF92DF
:1009D000BF92CF92DF92EF92FF920F931F93CF932C
:1009E000DF93CDB7DEB7CA1BDB0B0FB6F894DEBFC3
:1009F0000FBECDBF09942A88398848885F846E84E9
:100A00007D848C849B84AA84B984C884DF80EE8032
:100A1000FD800C811B81AA81B981CE0FD11D0FB63B
:100A2000F894DEBF0FBECDBFED010895EE0FFF1F9E
:100A30000590F491E02D09940F931F93CF93DF93CA
:100A40008230910510F482E090E0E0910C02F09188
:100A50000D0220E030E0A0E0B0E0309719F14081D5
:100A600051810281138148175907C8F084179507EF
:100A700069F4109731F012960C93129713961C9309
:100A800027C000930C0210930D0222C021153105DE
:100A900019F04217530718F49A01BD01EF01DF0165
:100AA000F801DBCF21153105F9F0281B390B243073
:100AB000310580F48A819B816115710521F0FB016C
:100AC0009383828304C090930D0280930C02FE01F5
:100AD000329644C0FE01E20FF31F8193919322509E
:100AE0003109398328833AC020910A0230910B02E0
:100AF000232B41F4209102013091030130930B022A
:100B000020930A0220910001309101012115310545
:100B100041F42DB73EB74091040150910501241BCB
:100B2000350BE0910A02F0910B02E217F307A0F4F3
:100B30002E1B3F0B2817390778F0AC014E5F5F4F33
:100B40002417350748F04E0F5F1F50930B02409358
:100B50000A028193919302C0E0E0F0E0CF01DF91BF
:100B6000CF911F910F910895CF93DF93009709F4D0
:100B700081C0FC01329713821282A0910C02B091C5
:100B80000D02109781F420813181820F931F2091F3
:100B90000A0230910B022817390751F5F0930B0226
:100BA000E0930A0267C0ED0120E030E0CE17DF07D6
:100BB00040F44A815B819E0141155105F1F0EA0143
:100BC000F5CFD383C28340815181840F951FC8170D
:100BD000D90759F488819981840F951F02969183D2
:100BE00080838A819B81938382832115310529F437
:100BF000F0930D02E0930C023DC0E901FB83EA8310
:100C000049915991C40FD51FEC17FD0761F48081FC
:100C10009181840F951F0296E901998388838281CF
:100C200093819B838A83E0E0F0E012968D919C9102
:100C30001397009719F0FD01DC01F7CF8D919C917E
:100C400011979D012E5F3F4F820F931F20910A0243
:100C500030910B022817390769F4309729F4109264
:100C60000D0210920C0202C013821282B0930B028A
:100C7000A0930A02DF91CF910895A0E0B0E0E3E4F1
:100C8000F6E00C94E304EC01009721F4CB010E9400
:100C90001C05B4C0FC01E60FF71F9C01225031096E
:100CA000E217F30708F4A8C0D9010D911C91119720
:100CB00006171707B0F00530110508F49BC0C801EE
:100CC00004978617970708F495C002501109061B70
:100CD000170B019311936D937C93CF010E94B40580
:100CE00089C05B01A01AB10A4C01800E911EA0912F
:100CF0000C02B0910D02612C712CE12CF12C10979B
:100D000009F446C08D919C911197A815B905B1F5CC
:100D10006C0142E0C40ED11CCA14DB0478F14C0112
:100D20008A189B08640142E0C40ED11C1296BC9044
:100D300012971396AC91B5E0CB16D10440F0B28275
:100D4000A38391828082D9016D937C9309C00E5F49
:100D50001F4F800F911FF90191838083EB2DFA2F94
:100D6000E114F10431F0D7011396FC93EE9312973E
:100D700041C0F0930D02E0930C023CC06816790666
:100D800008F43C017D0112960D90BC91A02DB7CFC7
:100D900080910A0290910B0288169906E1F466167A
:100DA0007706C8F48091000190910101009741F409
:100DB0008DB79EB74091040150910501841B950B9E
:100DC000E817F907C8F4F0930B02E0930A02F9015F
:100DD000718360830FC0CB010E941C057C010097CA
:100DE00059F0A801BE010E940807CE010E94B40577
:100DF000C70104C0CE0102C080E090E0CDB7DEB7ED
:100E0000EEE00C94FF0481E090E0F8940C9421074C
:100E1000FB01DC0102C001900D9241505040D8F717
:100E20000895FB01DC018D91019080190110D9F327
:100E3000990B0895FB01DC0101900D920020E1F770
:100E4000089510E0CDE5D0E004C0FE010E94160533
:0C0E50002196CE35D107C9F7F894FFCFEA
:100E5C0000000E02800000000000B00119014701E3
:100E6C00FD01780156016A010D0A007475726E203D
:100E7C006F6E206C69676874007475726E206F6693
:100E8C0066206C69676874007475726E206F6E20D2
:100E9C0066616E007475726E206F66662066616E98
:0E0EAC00007475726E206F6E20616C6C000019
:107E0000112484B714BE81FFF0D085E080938100F7
:107E100082E08093C00088E18093C10086E0809377
:107E2000C20080E18093C4008EE0C9D0259A86E02C
:107E300020E33CEF91E0309385002093840096BBD3
:107E4000B09BFECF1D9AA8958150A9F7CC24DD24C4
:107E500088248394B5E0AB2EA1E19A2EF3E0BF2EE7
:107E6000A2D0813461F49FD0082FAFD0023811F036
:107E7000013811F484E001C083E08DD089C08234E0
:107E800011F484E103C0853419F485E0A6D080C0E4
:107E9000853579F488D0E82EFF2485D0082F10E0AE
:107EA000102F00270E291F29000F111F8ED06801E7
:107EB0006FC0863521F484E090D080E0DECF843638
:107EC00009F040C070D06FD0082F6DD080E0C81688
:107ED00080E7D80618F4F601B7BEE895C0E0D1E017
:107EE00062D089930C17E1F7F0E0CF16F0E7DF06D8
:107EF00018F0F601B7BEE89568D007B600FCFDCFD4
:107F0000A601A0E0B1E02C9130E011968C91119780
:107F100090E0982F8827822B932B1296FA010C0160
:107F200087BEE89511244E5F5F4FF1E0A038BF0790
:107F300051F7F601A7BEE89507B600FCFDCF97BE46
:107F4000E89526C08437B1F42ED02DD0F82E2BD052
:107F50003CD0F601EF2C8F010F5F1F4F84911BD097
:107F6000EA94F801C1F70894C11CD11CFA94CF0C13
:107F7000D11C0EC0853739F428D08EE10CD085E9AC
:107F80000AD08FE07ACF813511F488E018D01DD067
:107F900080E101D065CF982F8091C00085FFFCCF94
:107FA0009093C60008958091C00087FFFCCF809118
:107FB000C00084FD01C0A8958091C6000895E0E648
:107FC000F0E098E1908380830895EDDF803219F02E
:107FD00088E0F5DFFFCF84E1DECF1F93182FE3DFCA
:107FE0001150E9F7F2DF1F91089580E0E8DFEE27F6
:047FF000FF270994CA
:027FFE00040479
:0400000300007E007B
:00000001FF
